:020000040000FA
:06200000C4EF24F0120001
:022006001200C6
:0620080085EF1FF012003D
:02200E00FEFFD3
:062018008EEF1FF0120024
:02201E000200BE
:10202000694A000092000000180000000E20000025
:08203000D200000002000000D4
:082038000001046B056B066B4F
:10204000076B010E086F096B0C6B0D6B0E6B3F0E6F
:102050000F6F0A6B0B6B010E036FC00EC0EC15F017
:102060003AEF10F000013E0EC0EF15F000013F0EF8
:10207000C0EF15F064EC17F042E8026A080E025C4B
:1020800021E2B80E02100001C0EC15F00001400E74
:10209000C0EC15F00001095102E0FF0E01D0000E66
:1020A000026F016A400E015C0BE20001006B57EC0D
:1020B0001FF00001010E006F57EC1FF0012AF2D74C
:1020C000022ADCD743E9E7CFD9FF120064EC17F00E
:1020D00045E8010E026E080E025C24E282EB03F07A
:1020E000016A400E015C1CE20001B7EC15F0D1EC76
:1020F00016F0046E010E006FD1EC16F0056E0306AB
:10210000B7EC15F004EB02F057EC1FF00001010EE4
:10211000006F05EB02F057EC1FF0032A012AE1D70C
:10212000022AD9D7380E0001066F076B016A150E17
:10213000015C0DE2060E0102F3280001046F056B3D
:10214000200EE66E37EC15F041E9012AF0D746E99A
:10215000E7CFD9FF1200CDEC15F082E9060E0001A1
:102160000C03F328046F056B800B01E00569080E72
:102170000D03F3CF06F0076B06BF07690A0E005C7C
:1021800017E10C6B0D2B070EE76E0D1902E70D35ED
:1021900002D00D51E75C04E299DF0001070E0D6FDC
:1021A00000EBAAF00001AB6BAAAF27D0AB6925D03A
:1021B00000EBE6FF37EC15F041E900010C2B140EA3
:1021C000E76E0C1902E70C3502D00C51E75C0FE208
:1021D0000C6B0D2B070EE76E0D1902E70D3502D0C3
:1021E0000D51E75C04E272DF0001070E0D6F00EB9A
:1021F000AAF00001AB6BAABFAB69AAC0F3FFABC0EA
:10220000F4FF41E9E7CFD9FF1200CDEC15F08AE9E0
:1022100065E8005001E015DA03EBAAF004EBABF03F
:102220000001AC6BABBFAC69AA510E6EAB510F6E27
:10223000AC51106E83EC16F083EC16F005EC1DF03B
:10224000E552E550106EE5500F6EE7500E6E01EB53
:10225000AAF002EBABF00001AC6BABBFAC69AA51CA
:10226000116EAB51126EAC51136E8AEC16F08AEC03
:1022700016F005EC1DF0E552E550136EE550126EB8
:10228000E750116E0A6A0B6A81EB0CF082EB0DF0DD
:102290000CEBB3F00DEBB4F00001B56BB4BFB56956
:1022A000F6EC16F083EC16F057EC16F0110F32EC4A
:1022B00016F00EEBB9F00FEBBAF010EBBBF0C2EC7E
:1022C00016F007E00001D890B833B733B633E8060C
:1022D000FAE10001AD51B625AA6FAE51B721AB6F3F
:1022E000AF51B821D6EC16F091EB23F092EB24F02D
:1022F00093EB25F0D950230F91EC16F0A3EB1DF0D2
:10230000A4EB1EF0A5EB1FF0D9501D0F91EC16F0B9
:102310008EEB26F08FEB27F090EB28F0D950260FAC
:1023200099EC16F0A6EB20F0A7EB21F0A8EB22F039
:10233000D950200F99EC16F0176A186A196A0CEB3D
:10234000ADF00DEBAEF0AF6BAEBFAF69FDEC16F0CC
:1023500026EBE6FF27EBE6FF28EBE6FF4BEC16F05B
:102360001A6EAB511B6EAC511C6EA0EB29F0A1EBA9
:102370002AF0A2EB2BF0D950290FA1EC16F09DEB1F
:102380002CF09EEB2DF09FEB2EF0D9502C0FA9ECEA
:1023900016F019341C50191802E604EC17F035E356
:1023A000005001E1C1DB163409E346EC17F01D5083
:1023B000EE261E50EE221F50EE221FD046EC17F0E4
:1023C0001A50EE5E1B50EE5A1C50EE5AE2DB2C50B7
:1023D000EE262D50EE222E50EE22D9501A0F58EC38
:1023E00017F02650EE5E2750EE5A2850EE5A005055
:1023F00001E0A7DB0C06000E0D5AD950170FA1EC17
:1024000016F00A2A000E0B22C4D783EB0AF084EBE5
:102410000BF00C6A0D6A0AEBB3F00BEBB4F00001A1
:10242000B56BB4BFB569F6EC16F08AEC16F057EC54
:1024300016F00E0F32EC16F011EBB9F012EBBAF009
:1024400013EBBBF0C2EC16F007E00001D890B833F4
:10245000B733B633E806FAE10001B651AD5DAA6FB5
:10246000B751AE59AB6FB851AF59D6EC16F00AEB75
:10247000ADF00BEBAEF0AF6BAEBFAF69FDEC16F09D
:1024800023EBE6FF24EBE6FF25EBE6FF4BEC16F033
:10249000176EAB51186EAC51196E1A6A1B6A1C6A22
:1024A00019341C50191802E604EC17F034E20050FD
:1024B00002E13ADB01D045DB163409E34FEC17F0BB
:1024C0002050EE262150EE222250EE221CD04FEC5E
:1024D00017F01750EE5E1850EE5A1950EE5A59DBAD
:1024E0002950EE262A50EE222B50EE22D950170FFB
:1024F00058EC17F02350EE5E2450EE5A2550EE5A59
:102500000A06000E0B5AD9501A0FA9EC16F00C2A25
:10251000000E0D22C5D7005001E0B3D866E9E7CF21
:10252000D9FF120064EC17F041E8000104517F0864
:10253000000E05552CE306513F08000E075527E312
:10254000006B04513F0802E2010E006FCBEC16F065
:10255000B80967EC17F0400E0001B1EC16F004E08A
:10256000FDDA0BEC17F009D0085104E0F7DAF5506A
:10257000011303D0F3DAF51C011700010151016EBC
:10258000400E61EC17F001EB02F057EC1FF019EF71
:1025900017F00001073501E31200073506E2065186
:1025A0003F08000E075501E212000651E76E0E19B2
:1025B00002E70E3502D00E51E75C02E206C00EF0D3
:1025C0000651E76E0F1902E7E73402D0E7500F5DBE
:1025D00002E206C00FF0053502E3046B056B05351A
:1025E00008E204518008000E055503E2800E046FD6
:1025F000056B0651BDDB22DBEF50FF0808E11EDB57
:1026000004C0EFFF1BDBEE5204C0EFFF120016DB2D
:10261000EECFAAF004510001D880AA5503E20EDBE8
:1026200004C0EFFF0BDBEECFAAF0EFCFABF0000161
:1026300004510001AB5D04E201DBEE5204C0EFFF88
:10264000120064EC17F041E800010E51016E0134F4
:102650000F51011802E601500F5D0FE301EBE9FF96
:10266000EA6AE9BEEA68D890E936EA36120EE92647
:10267000000EEA22EF68012AEAD7400E0E6F0F69BA
:10268000D8D364EC17F043E800010E51026E00014C
:1026900002500F5D36E302506BDB0250066F076B92
:1026A0007ADB036EDADBCADAEF50016EC7DAEE527C
:1026B000EF50015C24E201500001046F056B006BD8
:1026C00004513F0802E2010E006F400E4ADB03E0B6
:1026D00045DAA1DB09D0095104E040DAF5500113D5
:1026E00003D03CDAF51C011700010151036E400EC6
:1026F000E8DB03EB02F057EC1FF0012AD7D7022AE0
:10270000C6D744E9E7CFD9FF120047DA85E94CE89C
:10271000B5DAEECF04F0EDCF05F0EE50055EED50EA
:1027200047DAEECF06F0EDCF07F0EE50075EED5042
:10273000085A063402E342DB03D0010E0D6E0E6A26
:10274000083402E343DB03D0010E0F6E106A063437
:102750000850061804E60550075C065008581BE2AE
:102760003DDAB0DA31E0DEDE083405E30950072651
:102770000A5008220AD00DDF0B5007260C50082201
:1027800000010F5006271050072300010D500427A9
:102790000E500523E6D735DAA0DA16E0C3DE0001D5
:1027A0000F50062710500723063405E3095005266D
:1027B0000A500622F1D70B5005260C5006220D5068
:1027C00004270E500523E8D74DE9E7CFD9FF1200C3
:1027D000E4D985E950E852DAEE50116EED50126EF0
:1027E0001150055E1250E4D9EE50136EED50146E88
:1027F0001350075E1450085A063402E3DFDA03D0A0
:10280000010E0D6E0E6A083402E3E0DA03D0010E09
:102810000F6E106A06340850061804E60550075C6F
:102820000650085819E2DAD9FFD94CDA2DE00834FD
:1028300005E3095007260A50082209D0F5D90B50A4
:1028400007260C5008220F501326105014220D504A
:1028500011260E501222E9D7D4D93FDA15E0E4D977
:102860000F50132610501422063405E30950052694
:102870000A500622F2D70B5005260C5006220D50A6
:1028800011260E501222E9D751E9E7CFD9FF1200E5
:1028900084D985E941E8005001E0D3DE0106056AEC
:1028A0000150055C09E2005003E0CDD991DF02D070
:1028B000CAD92BDFB7DAF4D7005001E0E2DEB9D293
:1028C0006CD985E949E8005001E0BBDE0106056AE4
:1028D0000150055C2BE202EBF6FF03EBF7FF09006A
:1028E000F550066E0900F550076E0900F550086EA8
:1028F0000800F550096E040E0224F66E000E032047
:10290000F76E0900F5500A6E0900F5500B6E0900CC
:10291000F5500C6E0800F5500D6E005003E0E8D93C
:1029200057DF02D0E5D9F1DE7DDAD2D7005001E0E1
:10293000A8DE4AE9E7CFD9FF12002FD984E94CE895
:10294000000103510F6E800E0F140A6E0F9E7F0E52
:102950000415096E20DA076E0728086E070E0716A1
:1029600008160D680E6A061503D0D8900D360E367F
:10297000E804FBE70D1E0E1E066A0050065C73E2BB
:10298000099E0001006B093405E209503F0802E28C
:10299000010E006FB80E071005D903DA046EB80EE9
:1029A000081000D9FED9056E0A5006E001EBE9FFD8
:1029B00002EBEAFFEF5006D001EBF6FF02EBF7FF68
:1029C0000800F5500B6E0C6A070E061503D0D89060
:1029D0000B360C36E804FBE70F50200A2AE0300AD9
:1029E00021E0180A1AE00C0A13E0060A07E0030ABD
:1029F00024E10D5004160E5005160AD00D50041691
:102A00000E5005160D500B120E500C120B1E0C1E04
:102A10000B5004120C50051210D00D500B120E501A
:102A20000C1202D00B1E0C1E0B5004160C50051677
:102A300004D00B50041A0C50051AB80E07100001F0
:102A4000B1D804EB02F057EC1FF0B80E08100001EB
:102A5000A9D805EB02F057EC1FF0062A092A012A33
:102A6000000E02228AD74DE9E7CFD9FF120095D890
:102A700082E946E80050026E036AE8BE036800017E
:102A80000351046E039F200E025E000E035A0334AE
:102A90000FE2610ED89003BE03D0025C000E035813
:102AA00007E2050EE66E02EBAAF003EBABF023D0D3
:102AB000056A066A076A160EF36EF46AF350075C3D
:102AC000000EF4540FE2075089D9005C08E1072892
:102AD00085D9056E066AE8AE05D0066803D0020EF9
:102AE0000726E9D70550061019E0050EE66E05EB3E
:102AF000AAF006EBABF00001AB03F3CFABF0AA03F7
:102B0000F3CFAAF0F450AB27100EAA27430EAB2345
:102B1000AAC0E6FFABC0E6FF10DF43E904EB03F019
:102B200047E9E7CFD9FF120088D9A2D9FBDC8DD9BC
:102B3000A6D9F8DC82D9A3D9F5DC87D999D992EF47
:102B400012F07BD995D925DD80D999D922DD75D9A7
:102B500096D91FDD7AD98CD9C9EF12F0070E061568
:102B6000F76A080FF66E430EF7220800120075D9B7
:102B70000001006BA1D9010E006F9ED9006B1200FD
:102B8000026F006B66EC1FF00001010E006F66EF34
:102B90001FF0D950140F58EF17F0D9CFE6FFE1CF4F
:102BA000D9FF120094D9400E0910000167EF17F009
:102BB000065A00EBE9FF01EBEAFF020EE926000EE0
:102BC000EA22EE50076EED50086E02EBE9FF03EBD0
:102BD000EAFF020EE926000EEA221200075007263D
:102BE0000850082287EB09F088EB0AF00550075ED1
:102BF0000650085A0550075C0B6E065008580C6EBC
:102C00001200055005260650062285EB09F086EBDA
:102C10000AF00750055E0850065A0750055C0B6E17
:102C2000085006580C6E120011EB04F012EB05F080
:102C300013EB06F014EB07F0C9EF12F010C0E9FF38
:102C400011C0EAFF1200040E00010224AA6F000E58
:102C50000320AB6FAAC0E6FFE66E02EBE6FF03EBD4
:102C6000E6FF120025D90001B051EE5CAD6FB15105
:102C7000EE58AE6FB251EE58AF6F120000EBE9FFA5
:102C800001EBEAFFEE50056EED50066E02EBE9FF38
:102C900003EBEAFF120005EC1DF0E552E5CFACF0C6
:102CA000E5CFABF0E7CFAAF00001AA51120005EC86
:102CB0001DF0E552E5CFB2F0E5CFB1F0E7CFB0F0CF
:102CC000D950120005EBAAF006EBABF00506000E9A
:102CD000065A0001AA51AB11120007EBAAF008EB4B
:102CE000ABF00706000E085A0001AA51AB11120002
:102CF000D9500A0FE66EDACFE6FFD950060FE66E1E
:102D0000DACFE6FF12000EEBE6FF0FEBE6FF10EB6B
:102D1000E6FF120011EBE6FF12EBE6FF13EBE6FF16
:102D20001200C6D81150EE261250EE221350EE2299
:102D30001200BED80E50EE260F50EE221050EE229A
:102D40001200B6D82350EE262450EE222550EE2253
:102D50001200AED82650EE262750EE222850EE2242
:102D60001200AFD83FEC1FF000010A510B11120006
:102D7000020DF3CF10F0F4CF11F0120E1027000E59
:102D800011231200020E1F0BB9C0B6F0BAC0B7F083
:102D9000BBC0B8F012000651E840E840E8401F0B05
:102DA00012003FEC1FF0000101511200AC6FAA515C
:102DB000146EAB51156EAC51166E1200051E061E38
:102DC000052A000E06220D680E681200071E081E56
:102DD000072A000E08220F6810681200F76A2C0FED
:102DE000F66E450EF7220800F5501200B3C0E6FF5C
:102DF000B4C0E6FFB5C0E6FF1200ADC0E6FFAEC04E
:102E0000E6FFAFC0E6FF120017501A5C18501B58BF
:102E100019501C581200F5CF02F00BC0FAFF0A51EE
:102E20001400120044E9040E0226000E0322052AB3
:102E3000120042E9E7CFD9FF1200000107500A242F
:102E4000046F08500B20056F120000010A50075C48
:102E5000046F0B500858056F1200006BB80E03107A
:102E600036D80001010E006FB80E031067EF17F09F
:102E700005500C24066F06500D20076F12000C50F1
:102E8000055C066F0D500658076F120082DE175062
:102E9000EE261850EE221950EE22C9EF15F079DE19
:102EA0001A50EE261B50EE221C50EE22C9EF15F0F0
:102EB000E96EDACFEAFF1200400E011008D80001D7
:102EC0001200041167EF17F068DE81E91200026F4B
:042ED00066EF1FF09A
:0C2ED40090DB86E90150010600090CE0CB
:102EE00002EBE6FF03EBE6FF00EBE6FF69DBF4E154
:102EF000AB1DF2E1010E01D0000E41E9E5CFDAFF92
:102F0000E7CFD9FF120077DB89E97BE80A6A0B6A11
:102F100002EBF6FF03EBF7FF04EBF8FF0800F550B8
:102F2000096E095001E12DD3250E095C01E01BD388
:102F30000C6A0D6A0E6A0F6A106A2DDB2D0E095C91
:102F40000CE02B0E095C09E0200E095C06E0230E64
:102F5000095C03E0300E095C15E10950300A10E00D
:102F6000130A0CE0030A08E00B0A04E0060AE5E194
:102F70000C80E3D70C82E1D70C84DFD70C86DDD739
:102F80000C88DBD72A0E095C13E1A5DB0DE30C806E
:102F90001CEBAAF01DEBABF00001AA6DAB1F000EFD
:102FA000AB23AA510D6E02D09CEB0DF0F4DA07D0E2
:102FB000126A3FDB02E06BDBFCD792EB0DF00CB04A
:102FC0000C982E0E095C15E1E6DA2A0E095C08E180
:102FD00082DB04E29CEB0EF0010E0F6EDCDA09D00E
:102FE000126A27DB02E053DBFCD792EB0EF0010EF6
:102FF0000F6E680E095C07E1CEDA680E095C1DE110
:10300000030E106E19D0740E095C16E07A0E095C7E
:1030100013E0480E095C06E0540E095C03E05A0E0A
:10302000095C02E1020E07D06C0E095C03E06A0E37
:10303000095C03E1010E106EAEDA09506E0A01E17F
:103040006ED21E0A01E128D1200A01E125D13F0AF2
:1030500001E1FDD01A0A01E1FAD00D0A01E1F7D031
:10306000200A01E1F4D03A0A01E1F1D0200A01E19D
:10307000EED0260A01E1EAD00D0A01E1E7D01A0AF2
:1030800001E19ED0200A3BE0300A1AE0460A0EE039
:10309000250A01E072D2D950020FE96E000EDA2043
:1030A000EA6E010EEE5E000EEE5AEE5A0FDB250EB2
:1030B000E66E86DA03E1AB1D01E159D20A2A5BD242
:1030C000116A0D50010803E20D04116EF5DA11507A
:1030D00007E0010E0C1404E16DDA01E048D2116A38
:1030E000D3DAEF50096ECBDA03E1AB1D01E13FD239
:1030F0000A2A000E0B225EDA01E13FD238D2020E1C
:10310000105C08E1030E4EDAEE50176EEE50186EAA
:10311000EF5007D0E7DAAC6BAA51176EAB51186EBF
:10312000AC51196E17EBE6FF18EBE6FF19EBE6FF63
:103130003AEC24F043E9CAC0AAF0CBC0ABF0CCC053
:10314000ACF00001AA511C6EAB511D6E0F5006E091
:103150001C500E5C03E20E501C6E1D6A1C500D5C70
:1031600002E29CEB0DF050DA05E00D500E5C02E23D
:103170008EEB0DF00CB004D01DDA01E0F8D1116A2D
:10318000126A17EBF6FF18EBF7FF19EBF8FF0800D0
:10319000F550096E095010E00D50125C0DE26FDA27
:1031A00003E1AB1D01E1E3D10A2A000E0B22122A32
:1031B000D950170F55DAEBD7FDD901E1DED1D7D1C0
:1031C00063DAEE501A6EED501B6E1AEBE6FF1BEB46
:1031D000E6FF2CEC24F042E9F3501C6EF4501D6E17
:1031E0000F5006E01C500E5C03E20E501C6E1D6A70
:1031F0001C500D5C02E29CEB0DF006DA05E00D5070
:103200000E5C02E28EEB0DF00CB004D0D3D901E0DD
:10321000AED1116A126A1AEBE9FF1BEBEAFFEF501D
:10322000096E09500FE00D50125C0CE228DA03E140
:10323000AB1D01E19CD10A2A000E0B22122A1A2A88
:103240001B22E9D7B7D901E198D191D10C8E100496
:103250000AE1040EA7D9EE50136EEE50146EEE5034
:10326000156EEF5032D0030E105C16E10CAE0CD090
:103270000BDAEFCFAAF00001AB6BAC6BAD6BAAAF72
:1032800023D0AB69AC691FD0FFD9EFCFAAF0000102
:10329000AA51136E146A20D0020E105C0CE10CAE21
:1032A00006D0030E7FD9B6D9ACAF0ED00CD0030E2A
:1032B00079D9B0D909D00CAE0AD014DAAC6BAD6BA9
:1032C000ABAF02D0AC69AD69BCD9166E07D00ADAD3
:1032D000AA51136EAB51146E156A166A0F5002E1B3
:1032E000010E0E6E1E6A1F6AD950400FE66E000E68
:1032F000DA20E66EE552E550436EE750426E416AD1
:10330000116A0A0E106E0950780A12E0200A10E0C5
:10331000280A0CE0200A0AE03F0A06E00D0A02E053
:10332000200A08E1020E05D0080E03D0080E092677
:10333000100E106E0CBE02D00C920C94800E0C1469
:1033400017E0163415E3E668E668E668E66842D9F1
:103350002EEC1EF0E552E5CFADF0E5CFACF0E5CFB9
:10336000ABF0E7CFAAF000016CD9166E2D0E07D096
:103370000CA202D02B0E03D00CA404D0200E206E81
:103380001E2A01D0206A0E5005E1135014101510AA
:10339000161061E00001580EAA6F4A0EAB6F000EC6
:1033A000AC6F83D9EBEC1DF0E552E5CFB0F0E5CF83
:1033B000AFF0E5CFAEF0E7CFADF00001AA51AD25FB
:1033C000F36EAB51AE21F46EAC51AF21F86EF4CF79
:1033D000F7FFF3CFF6FF0800F550126E580E095CA8
:1033E00005E1610E125C02E3200E125E5ED9E8EC8C
:1033F0001DF0E552E550166EE550156EE550146E61
:10340000E750136E42EBE9FF43EBEAFF4206000E82
:10341000435A12EBEFFF1E2A13501410151016100A
:10342000B9E10CA619D06F0E095C06E10E501E5CC6
:1034300013E31E280E6E10D0780E095C09E0580EBA
:10344000095C06E0620E095C03E0420E095C04E1DF
:10345000020E1F6E01D01E6A100E0C1407E00D50F4
:103460000E5C04E20F5002E18DEB0EF00E501E5C7C
:1034700003E21E500E5E01D00E6A0E501E241F2461
:10348000D8800D5407E20E500D5CD8801E54D880B1
:103490001F54116E010E0C1406E1115004E08AD87D
:1034A00066E10AD9116A205007E010D920EBE6FF47
:1034B00087D802E1AB1D5BE01F500BE007D9300E4F
:1034C000E66E7ED802E1AB1D52E0D9D802E1AB1D19
:1034D0004EE00E501F5C02E21F500E5E300EE66E94
:1034E0000EEBE6FFDCD843E1422A000E432242EB1A
:1034F000E9FF43EBEAFFEF50126E125008E0E6D806
:1035000012EBE6FF5DD8F0E1AB1DEEE130D052D812
:103510002EE10E501E2411241F240A262CD01050F8
:10352000030A1CE0010A14E0030A07E0ADD8C9D879
:103530000AEBEEFF0BEBEDFF20D08BD8AD6BABAF02
:1035400002D0AC69AD69A0D84ED8ADC0EEFF15D0A1
:1035500080D8ABBFAC6998D846D80FD095D8B1D831
:103560000AEBEFFF0AD08BD805E1AB1D03E1F3684E
:10357000F4680BD00A2A000E0B22D950020F70D823
:10358000CDD40AEBF3FF0BEBF4FF7CE9E5CFDAFFD8
:10359000E7CFD9FF1200D950020F62D80800F550CA
:1035A000096E1200005E000E015A00EBE9FF01EB0C
:1035B000EAFF1200200EE66E11EBE6FF4FEF1BF064
:1035C0005FEC24F043E9F3CFAAF0F4CFABF00001B5
:1035D000F31C120013EBE6FF14EBE6FF15EBE6FF1E
:1035E00016EBE6FF12006DD8AAC0EEFFABC0EEFFEF
:1035F000ACC0EEFF1200D9CFE6FFDACFE6FFE1CF95
:10360000D9FFE2CFDAFF12001C500D5C116E54D8C6
:103610000F501200EECFAAF0EECFABF0EFCFACF030
:103620000001AD6B1200EECFAAF0EFCFABF00001BE
:1036300012000950E66EE66AFCEC24F042E9F35011
:103640001200AA51136EAB51146EAC51156EAD51F0
:1036500012000AEBAAF00BEBABF00001AC6B12000E
:10366000E96E000EDA20EA6EEF2AEECFF6FF000ECA
:10367000EF22EECFF7FFEF22EECFF8FF120026D8B1
:1036800009EBE6FFE0EF1AF0020ED2EF1AF00A0E95
:103690001202F3500924D00F126ECBEF1AF016D895
:1036A0006AEC17F044E90009120010EBE6FFE66A45
:1036B000E66AE66AEAEF1AF011500A26000E0B22BB
:1036C0001200EE50EFCFEAFFE96E120005EBE6FFC5
:1036D00006EBE6FF1200D8DFEE501C6EED501D6EBB
:0A36E0001D341200D1DF13EF1BF0C0
:0636EA00D88801D0D89839
:1036F0004AE8D9CFE6FFDACFE6FFE1CFD9FFE2CF44
:10370000DAFF94E9D8B8037E086A77EC1CF08FECF6
:103710001CF008B65BEF1CF008A20AD008AA03D080
:1037200008BE5BEF1CF008A467EF1CF064EF1CF010
:1037300008AA05D008AC67EF1CF064EF1CF008A0E5
:103740000AD008A808D008BE04D008A402D070EFA0
:103750001CF074EF1CF0096A0E6A0350075C106ECF
:1037600010E384EB0AF085EB0BF086EB0CF087EBB3
:103770000FF080EB04F081EB05F082EB06F0083AE5
:1037800009D080EB0AF081EB0BF082EB0CF083EBBD
:103790000FF0106C089E08BC088E8FEB0DF008B07F
:1037A00046EF1CF01A0E106046EF1CF00D6A076A17
:1037B00008A408D0046C051E061E071EE86A052230
:1037C0000622072208AC08D00A6C0B1E0C1E0D1E28
:1037D000E86A0B220C220D22116A105207E007340E
:1037E0000632053204321132102EF9D704500A265F
:1037F00005500B2206500C2207500D2291EB09F0C8
:10380000089E0DAE0BD0096C0A1E0B1E0C1E0D1E61
:10381000E86A0A220B220C220D22088E0DA006D087
:10382000D8800C320B320A3209320F2A8FEB0DF09E
:103830001AEF1CF00C500B100A10091055E00EBEC8
:103840004DD00CBE0CD00D500E1048E0D89009366B
:103850000A360B360C360D06D8A00E06F2D70E50DF
:1038600031E10D282FE009AE11D07F0E091402E1DD
:103870000AA00CD00A2AE86A0B220C2207E3D8809F
:103880000C320B320A320D2A0D281CE00D5026E0B6
:103890008AEB00F08BEB01F00C34026E0D30036EFE
:1038A0000232039E08BE038EE552E5CFDAFFE7CF72
:1038B000D9FF4EE912007F0E036EFF0E026E016EFD
:1038C000006EF2D77F0E08BEFF0E036E02D07F0E91
:1038D000036E800E026E016A006AE6D708AE04D05D
:1038E000800E036E026AF7D7036A026AF4D70636BF
:1038F000073602E30884087E06E10880076A066A44
:10390000056A046A1200072803E0D8800632120014
:10391000D890063202E108821200088612000236B0
:10392000033602E3088C087E06E10888036A026A0F
:10393000016A006A1200032803E0D88002321200F4
:10394000D8900232EAE1088A1200D89801D0D888CB
:1039500051E8D9CFE6FFDACFE6FFE1CFD9FFE2CFDA
:10396000DAFF94E9089E04E700AE02D0006C088EEE
:1039700080EB0CF00B6A0A6A096A860E0D6E0E6AFD
:103980001AEF1CF045E8D9CFE6FFDACFE6FFE1CF2A
:10399000D9FFE2CFDAFF8BE9086A8FEC1CF008B69A
:1039A000D6EF1CF008AA0ED008BC05D07F0E016E21
:1039B000FF0E006E23D0800E016E006A1FD0016AD8
:1039C000006A1CD008B8FBD78F0E0360EDD77E0EBF
:1039D0000364F5D78E0E035C05E0D8900232013205
:1039E000032AF8D708AC06D0016C021EE86A02224E
:1039F00002AEE5D781EB00F082EB01F0E552E5CFB6
:103A0000DAFFE7CFD9FF47E9120046E8D9CFE6FF52
:103A1000DACFE6FFE1CFD9FFE2CFDAFF8EE980EB24
:103A200006F081EB07F082EB08F085EB0BF084EBFE
:103A30000AF083EB09F003500602F450016EF350D4
:103A4000006E04500702F450036EF350026E0450EF
:103A50000602F3500126F4500222E86A03220950BC
:103A60000702F3500126F4500222E86A03220550AF
:103A70000602F3500226F450032205500702046A9E
:103A8000E86A0422F3500326F45004220950080285
:103A9000F3500226F4500322056AE86A0422052244
:103AA0000A500802F3500326F4500422E86A052263
:103AB0000B500802F3500426F4500522E552E5CFDE
:103AC000DAFFE7CFD9FF49E9000C4AE8D9CFE6FF92
:103AD000DACFE6FFE1CFD9FFE2CFDAFF94E9086A57
:103AE00077EC1CF08FEC1CF008B65BEF1CF008A222
:103AF00005D008B85BEF1CF062EF1CF008AA05D0F7
:103B000008B05BEF1CF062EF1CF008B002D008A810
:103B100002D06EEF1CF00E6A035007240D6EE86AA7
:103B20000E227E0E0D5EE86A0E5A096A0A6A0B6A58
:103B30000C6A02500602F4500C6EF3500B6E0150EA
:103B40000602F3500A26F4500B22000E0C220250FB
:103B50000502F3500A26F4500B22000E0C220050EE
:103B60000602F3500926F4500A22000E0B220C2202
:103B700001500502F3500926F4500A22000E0B22D0
:103B80000C2202500402F3500926F4500A22000EBF
:103B90000B220C2200500502F4500926000E0A22C6
:103BA0000B220C2201500402F4500926000E0A22B6
:103BB0000B220C221AEF1CF045E8D9CFE6FFDACF32
:103BC000E6FFE1CFD9FFE2CFDAFF8FE90C6A1200FE
:103BD000F3DF0C8003D0F0DF01D00C820B6A0A6A9D
:103BE000096A086A200EE76ED89004360536063654
:103BF0000736083609360A360B360050085C015085
:103C0000095802500A5803500B5809E30050085E47
:103C10000150095A02500A5A03500B5A042AE72E3F
:103C2000E4D70CB212000CB00AD088EB00F089EB9C
:103C300001F08AEB02F08BEB03F00CA008D084EBD0
:103C400000F085EB01F086EB02F087EB03F0E55224
:103C5000E5CFDAFFE7CFD9FF49E9120044E8D9CF31
:103C6000E6FFDACFE6FFE1CFD9FFE2CFDAFF8EE958
:103C700080EB08F081EB09F082EB0AF083EB0BF0AC
:103C800004500802F350006EF450016E0450090213
:103C9000F3500126000EF420026E04500A02F35085
:103CA0000226000EF420036E04500B02F35003268C
:103CB00005500802F3500126F4500222000E0322A0
:103CC00005500902F3500226F450032205500A025F
:103CD000F350032606500802F3500226F450032244
:103CE00006500902F350032607500802F35003263A
:0E3CF000E552E5CFDAFFE7CFD9FF48E9000C37
:023CFE00836AD7
:103D00003F0E956E83CFE6FFA5EC1CF0E66AE66AEF
:103D1000B40EE66E400EE66E65EC1DF0E552E5CFA2
:103D2000A5F0E5CFA4F0E5CFA3F0E7CFA2F0E66AD7
:103D3000E66AB40EE66E400EE66E83CFE6FFA5ECB3
:103D40001CF0E66AE66AB40EE66E400EE66E65ECBE
:103D50001DF077EC1BF0E552E5CFA9F0E5CFA8F018
:103D6000E5CFA7F0E7CFA6F0836A956A3AEC10F0AA
:103D70000001020E0C6F00010D6FA6C0E6FFA7C088
:103D8000E6FFA8C0E6FFA9C0E6FFC2EC1CF0A2C097
:103D9000E6FFA3C0E6FFA4C0E6FFA5C0E6FFC2ECB5
:103DA0001CF0E70EE66E490EE66EE66A92EC24F031
:103DB00047E90001020E0C6F0001030E0D6F98C061
:103DC000E6FF99C0E6FFDA0EE66E490EE66EE66A99
:103DD00092EC24F045E90001020E0C6F0001040E84
:103DE0000D6F9CC0E6FF9DC0E6FFCD0EE66E490E4E
:103DF000E66EE66A92EC24F045E90001020E0C6FD3
:103E00000001050E0D6FA0C0E6FFA1C0E6FFC00EC9
:103E1000E66E490EE66EE66A92EC24F045E9120081
:103E2000DACFE4FFE2CFDAFFE652F2B4F2949EB0CA
:103E30009E90E552E5CFDAFF1100D8CFE4FFE0CF46
:103E4000E4FFE46EDACFE4FFE2CFDAFFE652E552B8
:103E5000E5CFDAFFE550E5CFE0FFE5CFD8FF100072
:103E6000D9CFE6FFE1CFD9FF82E900EBE6FFABEC6B
:103E700010F041E900D041E9E7CFD9FF120035D871
:103E8000000101BFFCD78188818A8186000081966C
:103E90002CD8000101BFFCD78188818A818600006F
:103EA000000083CF01F08196818E818C12001DD895
:103EB000000101BFFCD702C083FF956A8198818A07
:103EC000818600008196818E818C12000ED80001BF
:103ED00001BFFCD702C083FF956A8198819A8186D1
:103EE00000008196818E818C12009568000100513E
:103EF00002E0819E01D0819C8188819A81860000A8
:103F0000000083CF01F081961200DACFE4FFE2CF08
:103F1000DAFFE652E552E5CFDAFF1100D8CFE4FF31
:103F2000E0CFE4FFE46EDACFE4FFE2CFDAFFE6525F
:103F3000E552E5CFDAFFE550E5CFE0FFE5CFD8FF6A
:103F40001000D9CFE6FFE1CFD9FF83E945E800EBC8
:103F5000E9FF01EBEAFFEECFCEF0EDCFCFF0CEC020
:103F6000F6FFCFC0F7FF0C0EF626000EF722090071
:103F7000F5CFD0F00A00F5CFD1F0D0C0E9FFD1C025
:103F8000EAFFEF50210A02E0010E2ED1066A076A0D
:103F9000D0C0E9FFD1C0EAFF020EEB50310805E1C5
:103FA000010E0001926F936B03D00001926B936B33
:103FB000D0C0E9FFD1C0EAFF020EE926000EEA22D6
:103FC000E92AEA22EF50310804E1010E966F976B5F
:103FD00002D0966B976BD0C0E9FFD1C0EAFF020E0A
:103FE000E926000EEA22020EE926000EEA22EF5030
:103FF000310804E1010E9A6F9B6B02D09A6B9B6BA8
:10400000D0C0E9FFD1C0EAFF020EE926000EEA2285
:10401000030EE926000EEA22EF50310804E1010EFA
:104020009E6F9F6B02D09E6B9F6BD0C0E9FFD1C08B
:10403000EAFF020EE926000EEA22040EE926000E2F
:10404000EA22EF50036ED0C0E9FFD1C0EAFF020EB2
:10405000E926000EEA22050EE926000EEA22EF50BC
:10406000046ED0C0E9FFD1C0EAFF020EE926000EBF
:10407000EA22060EE926000EEA22EF50056ED9501C
:10408000030FE66EDACFE6FF20EC23F042E9F3CF30
:1040900094F0F4CF95F0D0C0E9FFD1C0EAFF020E52
:1040A000E926000EEA22070EE926000EEA22EF506A
:1040B000036ED0C0E9FFD1C0EAFF020EE926000E70
:1040C000EA22080EE926000EEA22EF50046ED0C064
:1040D000E9FFD1C0EAFF020EE926000EEA22090E2E
:1040E000E926000EEA22EF50056ED950030FE66E66
:1040F000DACFE6FF20EC23F042E9F3CF98F0F4CFDB
:1041000099F0D0C0E9FFD1C0EAFF020EE926000E07
:10411000EA220A0EE926000EEA22EF50036ED0C012
:10412000E9FFD1C0EAFF020EE926000EEA220B0EDB
:10413000E926000EEA22EF50046ED0C0E9FFD1C09C
:10414000EAFF020EE926000EEA220C0EE926000E16
:10415000EA22EF50056ED950030FE66EDACFE6FF84
:1041600020EC23F042E9F3CF9CF0F4CF9DF0D0C0D7
:10417000E9FFD1C0EAFF020EE926000EEA220D0E89
:10418000E926000EEA22EF50036ED0C0E9FFD1C04D
:10419000EAFF020EE926000EEA220E0EE926000EC4
:1041A000EA22EF50046ED0C0E9FFD1C0EAFF020E50
:1041B000E926000EEA220F0EE926000EEA22EF5051
:1041C000056ED950030FE66EDACFE6FF20EC23F040
:1041D00042E9F3CFA0F0F4CFA1F0D0C0E9FFD1C005
:1041E000EAFFEF6A000E00D046E9E7CFD9FF1200E0
:1041F000D9CFE6FFE1CFD9FF81E952E8016A026A2F
:10420000036A046A056A066A076A086A096A0A6A2A
:104210000B6A3F0E0C6E0D6A0E6A0F6A106A116A05
:10422000126AC168806A926AD59CD59AD596F80EB2
:10423000D5140709D56ECD8ECD92CD96CF0ECD1467
:104240003009CD6EF2949E90F28EF28CF28A9D80AF
:10425000D76AD66ACF6ACE6AD58ECD800001D26980
:10426000D369C00E816E070E936E1CEC10F036EC15
:1042700010F00001096B0001010E086F0001800EB3
:10428000AA6F010EAB6F420EE66E3F0EE66EE66A57
:10429000050EE66EABC0FAFFAA51140044E9000116
:1042A000800EAA6F010EAB6FE66AE66AE66A040E3C
:1042B000E66EABC0FAFFAA51140044E90001800E7B
:1042C000AA6F010EAB6FE66AE66AE66A030EE66E57
:1042D000ABC0FAFFAA51140044E911DD0001800EC1
:1042E000AA6F010EAB6FF40EE66E010EE66EE66A83
:1042F000020EE66EABC0FAFFAA51140044E9CFD714
:0843000053E9E7CFD9FF1200D9
:084308000102040810204080AE
:10431000000000000000005F00000007000700141C
:104320007F147F14242A7F2A1223130864623649DB
:104330005522500005030000001C224100004122CC
:104340001C00082A1C2A0808083E080800503000F3
:104350000008080808080060600000201008040237
:104360003E5149453E00427F40004261514946214D
:1043700041454B311814127F1027454545393C4AB9
:104380004949300171090503364949493606494909
:10439000291E0036360000005636000000081422A0
:1043A0004114141414144122140800020151090686
:1043B000324979413E7E1111117E7F494949363E8D
:1043C000414141227F4141221C7F494949417F09A6
:1043D0000901013E414151327F0808087F00417FB9
:1043E00041002040413F017F081422417F4040406E
:1043F000407F0204027F7F0408107F3E4141413E1E
:104400007F090909063E4151215E7F091929464667
:104410004949493101017F01013F4040403F1F2090
:1044200040201F7F2018207F631408146303047842
:104430000403615149454300007F414102040810D3
:104440002041417F000004020102044040404040FE
:10445000000102040020545454787F484444383802
:1044600044444420384444487F3854545418087E07
:10447000090102081454543C7F0804047800447D68
:1044800040002040443D00007F10284400417F4010
:10449000007C041804787C080404783844444438C8
:1044A0007C14141408081414187C7C0804040848AC
:1044B00054545420043F4440203C4040207C1C2065
:1044C00040201C3C4030403C44281028440C5050B4
:1044D000503C4464544C44000836410000007F00C6
:1044E000000041360800040202040208082A1C08E1
:1044F000081C2A08087C0911217C7C090505782004
:1045000054565578385456551800447E4100384466
:104510004645383C4042217C3C4140413C3C414086
:10452000217C00007D00003048454030D161F162BF
:10453000E163E964ED65F366FA67DC68FC69A16A2A
:02454000BF6B4F
:0E45420004D8000901E0FCD7120007D8FF08DA
:1045500002E0FF0E02D0000E00D01200F00E831415
:104560000109836E0A0EE66EE66A10EC24F042E959
:1045700083A802D0000E5CD083AA02D0010E58D0CE
:1045800083AC02D0020E54D083AE02D0030E50D0C2
:10459000F00E83140209836E0A0EE66EE66A10ECD2
:1045A00024F042E983A802D0040E42D083AA02D0AC
:1045B000050E3ED083AC02D0060E3AD083AE02D0B8
:1045C000070E36D0F00E83140409836E0A0EE66ED1
:1045D000E66A10EC24F042E983A802D0080E28D045
:1045E00083AA02D0090E24D083AC02D00A0E20D0B8
:1045F00083AE02D00B0E1CD0F00E83140809836E1C
:104600000A0EE66EE66A10EC24F042E983A802D0B6
:104610000C0E0ED083AA02D00D0E0AD083AC02D0AD
:104620000E0E06D083AE02D00F0E02D0FF0E00D0C9
:1046300012008CDF000901E1FCD790DF00D01200EE
:10464000FF0EE3CFEAFFE552FF0EE3CFE9FFE552AD
:10465000E66AE66AD9CFE6FFDACFE6FFFC0EE12490
:10466000D96EFF0EE220DA6EE66AE66AE66A200E8E
:10467000EF5C06E0090EEF5C03E0EF6603D03FD08D
:10468000EE50F5D72D0EEF5C03E1FF0EE32A03D0C9
:104690002B0EEF5C01E1EE502F0EEF6424D03A0EAA
:1046A000EF6021D0D890F90EE336FA0EE336FD0E16
:1046B000DECFE3FFFE0EDDCFE3FFD890F90EE33649
:1046C000FA0EE336D890F90EE336FA0EE336FD0E15
:1046D000E350DE26FE0EE350DD22300EEE5CDE26D9
:1046E000000EDD22D9D7FF0EE3CFE8FFE85207E046
:1046F000F90EE31EE32AFA0ED8B4E306E31EE552F0
:10470000E552E552FF0EE3CFDAFFE552FF0EE3CFAD
:10471000D9FFE552E1CFE9FFE2CFEAFFED52ED52DA
:0A472000EECFF3FFEFCFF4FF12001D
:06472A001E0EF66E200ECB
:10473000F76E000EF86E00010900F550C56F090014
:10474000F550C66F03E1C56701D03DD00900F550B3
:10475000C06F0900F550C16F0900F550C26F090024
:104760000900F550E96E0900F550EA6E09000900EC
:104770000900F550C36F0900F550C46F0900090026
:10478000F6CFC7F0F7CFC8F0F8CFC9F0C0C0F6FF3A
:10479000C1C0F7FFC2C0F8FF0001C35302E1C45318
:1047A00007E00900F550EE6EC307F8E2C407F9D739
:1047B000C7C0F6FFC8C0F7FFC9C0F8FF0001C507B2
:0847C000000EC65BBFD712001A
:0847C800D9CFE6FFE1CFD9FFD4
:1047D00083E944E800EBAAF001EBABF00006000E21
:1047E000015A0001AA51AB1117E0C10E036E020E6F
:1047F000046E056A066A03500410051006100BE0EB
:10480000D950030FE96EDACFEAFFEE06000EEE5A3A
:10481000EE5AEE5AF0D7DED745E9E7CFD9FF1200BE
:10482000D9CFE6FFE1CFD9FF83E941E800EBAAF059
:1048300001EBABF00006000E015A0001AA51AB11CA
:1048400007E00A0E036E035002E00306FCD7EED722
:0848500042E9E7CFD9FF120095
:08485800FE0EE3CFE9FFFF0EA5
:10486000E3CFEAFFF36AF46AEE5203E0F34AF42A74
:10487000FBD71200FF0EE3CFF8FFE552FF0EE3CFA8
:10488000F7FFE552FF0EE3CFF6FFE552E66AE66A70
:10489000E66A0900F55209E0FD0EE32A05E1FE0E85
:1048A000E32A02E1FF0EE32AF4D7FD0EE3CFCAF0BC
:0E48B000FE0EE3CFCBF0FF0EE3CFCCF01200F4
:0248BE00D9CF50
:1048C000E6FFDACFE6FFE1CFD9FFE2CFDAFF85E9F5
:1048D000013415E200EBE9FF01EBEAFFEECFF3FF55
:1048E000EDCFF4FFEE2A000EEF22F3CFE9FFF4CF75
:1048F000EAFF02EBEFFFEF50F36EF46A0DD0FE0E0D
:10490000005C05E102EBE6FF1EEC25F004D002EBB3
:10491000E6FF30EC1FF041E941E9E5CFDAFFE7CFF0
:04492000D9FF1200A9
:0C492400D9CFE6FFDACFE6FFE1CFD9FFE4
:10493000E2CFDAFF85E944E8D9CFE6FFDACFE6FF38
:10494000E552E550066EE750056E05EBE6FF06EB17
:10495000E6FF00EBE6FF01EBE6FF02EBE6FFD2C06D
:10496000E6FFD3C0E6FF83EC17F047E9F350076E8C
:10497000F450086E07EBF3FF08EBF4FF45E9E5CFD1
:08498000DAFFE7CFD9FF1200B6
:08498800E1CFBCF0E2CFBDF06D
:10499000D9CFBEF0DACFBFF017EE00F027EE00F06F
:1049A000F86A95EC23F003EC10F0F8EC20F0BCC0B2
:1049B000E1FFBDC0E2FFBEC0D9FFBFC0DAFF1200F9
:1049C000536572766F20333A202564200053657258
:1049D000766F20323A2025642000536572766F206E
:1049E000313A2025642000426173653A202825640D
:0749F000202D2025642900A1
:0849F800F36AF46AFF0EE124EA
:104A0000E96EFF0EE220EA6EED6607D02F0EEF642E
:0C4A100004D03A0EEF6001D0F32A12002F
:044A1C00000EF36E27
:104A200000EE00F0080E01D81200EA6002D0EE6A33
:0C4A3000FCD7F350E9601200EE6AFCD7DE
:044A3C00FF0EE35036
:104A4000ACBA04D0AF6AAB8EAC8A949CACA2FED751
:084A5000AD6EF36EF46A120072
:084A58003031323334353637BA
:094A600038396162636465660087
:074A69000000000000000046
:104A70000000000000000000000000000000000036
:014A80000035
:00000001FF
